{
  "contractName": "Hello",
  "abi": [
    {
      "inputs": [],
      "stateMutability": "nonpayable",
      "type": "constructor"
    },
    {
      "inputs": [],
      "name": "greetingMessage",
      "outputs": [
        {
          "internalType": "string",
          "name": "",
          "type": "string"
        }
      ],
      "stateMutability": "view",
      "type": "function",
      "constant": true
    },
    {
      "inputs": [],
      "name": "owner",
      "outputs": [
        {
          "internalType": "address",
          "name": "",
          "type": "address"
        }
      ],
      "stateMutability": "view",
      "type": "function",
      "constant": true
    },
    {
      "inputs": [],
      "name": "ownerName",
      "outputs": [
        {
          "internalType": "string",
          "name": "",
          "type": "string"
        }
      ],
      "stateMutability": "view",
      "type": "function",
      "constant": true
    },
    {
      "inputs": [],
      "name": "getGreeting",
      "outputs": [
        {
          "internalType": "string",
          "name": "",
          "type": "string"
        }
      ],
      "stateMutability": "view",
      "type": "function",
      "constant": true
    },
    {
      "inputs": [
        {
          "internalType": "string",
          "name": "_newGreeting",
          "type": "string"
        }
      ],
      "name": "setGreeting",
      "outputs": [],
      "stateMutability": "nonpayable",
      "type": "function"
    },
    {
      "inputs": [
        {
          "internalType": "string",
          "name": "_name",
          "type": "string"
        }
      ],
      "name": "setOwnerName",
      "outputs": [],
      "stateMutability": "nonpayable",
      "type": "function"
    }
  ],
  "bytecode": "0x608060405234801561001057600080fd5b50336000806101000a81548173ffffffffffffffffffffffffffffffffffffffff021916908373ffffffffffffffffffffffffffffffffffffffff1602179055506040518060400160405280601a81526020017f4b6179756d6261204a65616e204d61726965205669616e6e65790000000000008152506001908051906020019061009c9291906100d1565b50604051806060016040528060228152602001610bbb60229139600290805190602001906100cb9291906100d1565b506101d5565b8280546100dd90610174565b90600052602060002090601f0160209004810192826100ff5760008555610146565b82601f1061011857805160ff1916838001178555610146565b82800160010185558215610146579182015b8281111561014557825182559160200191906001019061012a565b5b5090506101539190610157565b5090565b5b80821115610170576000816000905550600101610158565b5090565b6000600282049050600182168061018c57607f821691505b602082108114156101a05761019f6101a6565b5b50919050565b7f4e487b7100000000000000000000000000000000000000000000000000000000600052602260045260246000fd5b6109d7806101e46000396000f3fe608060405234801561001057600080fd5b50600436106100625760003560e01c8063295795e21461006757806365ac232014610083578063668f5095146100a15780638da5cb5b146100bf578063a4136862146100dd578063fe50cc72146100f9575b600080fd5b610081600480360381019061007c919061057a565b610117565b005b61008b6101f5565b60405161009891906107a2565b60405180910390f35b6100a9610283565b6040516100b691906107a2565b60405180910390f35b6100c7610311565b6040516100d49190610787565b60405180910390f35b6100f760048036038101906100f2919061057a565b610335565b005b6101016103dd565b60405161010e91906107a2565b60405180910390f35b60008054906101000a900473ffffffffffffffffffffffffffffffffffffffff1673ffffffffffffffffffffffffffffffffffffffff163373ffffffffffffffffffffffffffffffffffffffff16146101a5576040517f08c379a000000000000000000000000000000000000000000000000000000000815260040161019c906107e4565b60405180910390fd5b80600190805190602001906101bb92919061046f565b50806040516020016101cd919061075a565b604051602081830303815290604052600290805190602001906101f192919061046f565b5050565b6001805461020290610900565b80601f016020809104026020016040519081016040528092919081815260200182805461022e90610900565b801561027b5780601f106102505761010080835404028352916020019161027b565b820191906000526020600020905b81548152906001019060200180831161025e57829003601f168201915b505050505081565b6002805461029090610900565b80601f01602080910402602001604051908101604052809291908181526020018280546102bc90610900565b80156103095780601f106102de57610100808354040283529160200191610309565b820191906000526020600020905b8154815290600101906020018083116102ec57829003601f168201915b505050505081565b60008054906101000a900473ffffffffffffffffffffffffffffffffffffffff1681565b60008054906101000a900473ffffffffffffffffffffffffffffffffffffffff1673ffffffffffffffffffffffffffffffffffffffff163373ffffffffffffffffffffffffffffffffffffffff16146103c3576040517f08c379a00000000000000000000000000000000000000000000000000000000081526004016103ba906107c4565b60405180910390fd5b80600290805190602001906103d992919061046f565b5050565b6060600280546103ec90610900565b80601f016020809104026020016040519081016040528092919081815260200182805461041890610900565b80156104655780601f1061043a57610100808354040283529160200191610465565b820191906000526020600020905b81548152906001019060200180831161044857829003601f168201915b5050505050905090565b82805461047b90610900565b90600052602060002090601f01602090048101928261049d57600085556104e4565b82601f106104b657805160ff19168380011785556104e4565b828001600101855582156104e4579182015b828111156104e35782518255916020019190600101906104c8565b5b5090506104f191906104f5565b5090565b5b8082111561050e5760008160009055506001016104f6565b5090565b600061052561052084610835565b610804565b90508281526020810184848401111561053d57600080fd5b6105488482856108be565b509392505050565b600082601f83011261056157600080fd5b8135610571848260208601610512565b91505092915050565b60006020828403121561058c57600080fd5b600082013567ffffffffffffffff8111156105a657600080fd5b6105b284828501610550565b91505092915050565b6105c48161088c565b82525050565b60006105d582610865565b6105df8185610870565b93506105ef8185602086016108cd565b6105f881610990565b840191505092915050565b600061060e82610865565b6106188185610881565b93506106288185602086016108cd565b80840191505092915050565b6000610641600783610881565b91507f48656c6c6f2c20000000000000000000000000000000000000000000000000006000830152600782019050919050565b6000610681600183610881565b91507f21000000000000000000000000000000000000000000000000000000000000006000830152600182019050919050565b60006106c1602383610870565b91507f4f6e6c7920746865206f776e65722063616e207365742074686520677265657460008301527f696e6700000000000000000000000000000000000000000000000000000000006020830152604082019050919050565b6000610727601f83610870565b91507f4f6e6c7920746865206f776e65722063616e2073657420746865206e616d65006000830152602082019050919050565b600061076582610634565b91506107718284610603565b915061077c82610674565b915081905092915050565b600060208201905061079c60008301846105bb565b92915050565b600060208201905081810360008301526107bc81846105ca565b905092915050565b600060208201905081810360008301526107dd816106b4565b9050919050565b600060208201905081810360008301526107fd8161071a565b9050919050565b6000604051905081810181811067ffffffffffffffff8211171561082b5761082a610961565b5b8060405250919050565b600067ffffffffffffffff8211156108505761084f610961565b5b601f19601f8301169050602081019050919050565b600081519050919050565b600082825260208201905092915050565b600081905092915050565b60006108978261089e565b9050919050565b600073ffffffffffffffffffffffffffffffffffffffff82169050919050565b82818337600083830152505050565b60005b838110156108eb5780820151818401526020810190506108d0565b838111156108fa576000848401525b50505050565b6000600282049050600182168061091857607f821691505b6020821081141561092c5761092b610932565b5b50919050565b7f4e487b7100000000000000000000000000000000000000000000000000000000600052602260045260246000fd5b7f4e487b7100000000000000000000000000000000000000000000000000000000600052604160045260246000fd5b6000601f19601f830116905091905056fea26469706673582212205286298775138bfb4c9866c898e45967d8da344afad1918d0fa236de36d08b9664736f6c6343000800003348656c6c6f2c204b6179756d6261204a65616e204d61726965205669616e6e657921",
  "immutableReferences": {},
  "source": "\r\n// SPDX-License-Identifier: MIT\r\npragma solidity ^0.8.0;\r\n\r\ncontract Hello {\r\n    address public owner;\r\n    string public ownerName;\r\n    string public greetingMessage;\r\n\r\n    constructor() {\r\n        owner = msg.sender;\r\n        ownerName = \"Kayumba Jean Marie Vianney\";\r\n        greetingMessage = \"Hello, Kayumba Jean Marie Vianney!\";\r\n    }\r\n    \r\n    function getGreeting() public view returns (string memory) {\r\n        return greetingMessage;\r\n    }\r\n    function setGreeting(string memory _newGreeting) public {\r\n        require(msg.sender == owner, \"Only the owner can set the greeting\");\r\n        greetingMessage = _newGreeting;\r\n    }\r\n\r\n    function setOwnerName(string memory _name) public {\r\n        require(msg.sender == owner, \"Only the owner can set the name\");\r\n        ownerName = _name;\r\n        greetingMessage = string(abi.encodePacked(\"Hello, \", _name, \"!\"));\r\n    }\r\n}\r\n\r\n",
  "sourcePath": "C:\\Users\\pc\\Desktop\\Solidity\\projects\\hello-world-myname\\contracts\\Hello.sol",
  "compiler": {
    "name": "solc",
    "version": "0.8.0+commit.c7dfd78e.Emscripten.clang"
  },
  "schemaVersion": "3.4.16",
  "updatedAt": "2024-02-16T07:30:50.666Z",
  "networkType": "ethereum",
  "devdoc": {
    "kind": "dev",
    "methods": {},
    "version": 1
  },
  "userdoc": {
    "kind": "user",
    "methods": {},
    "version": 1
  }
}